{
  "_format": "hh-sol-artifact-1",
  "contractName": "FractionalBricks",
  "sourceName": "contracts/FractionalBrick.sol",
  "abi": [
    {
      "inputs": [
        {
          "internalType": "string",
          "name": "_initBaseURI",
          "type": "string"
        },
        {
          "internalType": "string",
          "name": "_initNotRevealedUri",
          "type": "string"
        }
      ],
      "stateMutability": "nonpayable",
      "type": "constructor"
    },
    {
      "anonymous": false,
      "inputs": [
        {
          "indexed": true,
          "internalType": "address",
          "name": "owner",
          "type": "address"
        },
        {
          "indexed": true,
          "internalType": "address",
          "name": "approved",
          "type": "address"
        },
        {
          "indexed": true,
          "internalType": "uint256",
          "name": "tokenId",
          "type": "uint256"
        }
      ],
      "name": "Approval",
      "type": "event"
    },
    {
      "anonymous": false,
      "inputs": [
        {
          "indexed": true,
          "internalType": "address",
          "name": "owner",
          "type": "address"
        },
        {
          "indexed": true,
          "internalType": "address",
          "name": "operator",
          "type": "address"
        },
        {
          "indexed": false,
          "internalType": "bool",
          "name": "approved",
          "type": "bool"
        }
      ],
      "name": "ApprovalForAll",
      "type": "event"
    },
    {
      "anonymous": false,
      "inputs": [
        {
          "indexed": true,
          "internalType": "address",
          "name": "previousOwner",
          "type": "address"
        },
        {
          "indexed": true,
          "internalType": "address",
          "name": "newOwner",
          "type": "address"
        }
      ],
      "name": "OwnershipTransferred",
      "type": "event"
    },
    {
      "anonymous": false,
      "inputs": [
        {
          "indexed": true,
          "internalType": "address",
          "name": "from",
          "type": "address"
        },
        {
          "indexed": true,
          "internalType": "address",
          "name": "to",
          "type": "address"
        },
        {
          "indexed": true,
          "internalType": "uint256",
          "name": "tokenId",
          "type": "uint256"
        }
      ],
      "name": "Transfer",
      "type": "event"
    },
    {
      "inputs": [
        {
          "internalType": "address",
          "name": "",
          "type": "address"
        }
      ],
      "name": "addressMintedBalance",
      "outputs": [
        {
          "internalType": "uint256",
          "name": "",
          "type": "uint256"
        }
      ],
      "stateMutability": "view",
      "type": "function"
    },
    {
      "inputs": [
        {
          "internalType": "address",
          "name": "to",
          "type": "address"
        },
        {
          "internalType": "uint256",
          "name": "tokenId",
          "type": "uint256"
        }
      ],
      "name": "approve",
      "outputs": [],
      "stateMutability": "nonpayable",
      "type": "function"
    },
    {
      "inputs": [
        {
          "internalType": "address",
          "name": "owner",
          "type": "address"
        }
      ],
      "name": "balanceOf",
      "outputs": [
        {
          "internalType": "uint256",
          "name": "",
          "type": "uint256"
        }
      ],
      "stateMutability": "view",
      "type": "function"
    },
    {
      "inputs": [],
      "name": "baseExtension",
      "outputs": [
        {
          "internalType": "string",
          "name": "",
          "type": "string"
        }
      ],
      "stateMutability": "view",
      "type": "function"
    },
    {
      "inputs": [],
      "name": "baseURI",
      "outputs": [
        {
          "internalType": "string",
          "name": "",
          "type": "string"
        }
      ],
      "stateMutability": "view",
      "type": "function"
    },
    {
      "inputs": [],
      "name": "cost",
      "outputs": [
        {
          "internalType": "uint256",
          "name": "",
          "type": "uint256"
        }
      ],
      "stateMutability": "view",
      "type": "function"
    },
    {
      "inputs": [
        {
          "internalType": "uint256",
          "name": "tokenId",
          "type": "uint256"
        }
      ],
      "name": "getApproved",
      "outputs": [
        {
          "internalType": "address",
          "name": "",
          "type": "address"
        }
      ],
      "stateMutability": "view",
      "type": "function"
    },
    {
      "inputs": [
        {
          "internalType": "address",
          "name": "owner",
          "type": "address"
        },
        {
          "internalType": "address",
          "name": "operator",
          "type": "address"
        }
      ],
      "name": "isApprovedForAll",
      "outputs": [
        {
          "internalType": "bool",
          "name": "",
          "type": "bool"
        }
      ],
      "stateMutability": "view",
      "type": "function"
    },
    {
      "inputs": [
        {
          "internalType": "address",
          "name": "_user",
          "type": "address"
        }
      ],
      "name": "isWhitelisted",
      "outputs": [
        {
          "internalType": "bool",
          "name": "",
          "type": "bool"
        }
      ],
      "stateMutability": "view",
      "type": "function"
    },
    {
      "inputs": [],
      "name": "maxMintAmount",
      "outputs": [
        {
          "internalType": "uint256",
          "name": "",
          "type": "uint256"
        }
      ],
      "stateMutability": "view",
      "type": "function"
    },
    {
      "inputs": [],
      "name": "maxSupply",
      "outputs": [
        {
          "internalType": "uint256",
          "name": "",
          "type": "uint256"
        }
      ],
      "stateMutability": "view",
      "type": "function"
    },
    {
      "inputs": [
        {
          "internalType": "uint256",
          "name": "_mintAmount",
          "type": "uint256"
        }
      ],
      "name": "mint",
      "outputs": [],
      "stateMutability": "payable",
      "type": "function"
    },
    {
      "inputs": [],
      "name": "name",
      "outputs": [
        {
          "internalType": "string",
          "name": "",
          "type": "string"
        }
      ],
      "stateMutability": "view",
      "type": "function"
    },
    {
      "inputs": [],
      "name": "nftPerAddressLimit",
      "outputs": [
        {
          "internalType": "uint256",
          "name": "",
          "type": "uint256"
        }
      ],
      "stateMutability": "view",
      "type": "function"
    },
    {
      "inputs": [],
      "name": "notRevealedUri",
      "outputs": [
        {
          "internalType": "string",
          "name": "",
          "type": "string"
        }
      ],
      "stateMutability": "view",
      "type": "function"
    },
    {
      "inputs": [],
      "name": "onlyWhitelisted",
      "outputs": [
        {
          "internalType": "bool",
          "name": "",
          "type": "bool"
        }
      ],
      "stateMutability": "view",
      "type": "function"
    },
    {
      "inputs": [],
      "name": "owner",
      "outputs": [
        {
          "internalType": "address",
          "name": "",
          "type": "address"
        }
      ],
      "stateMutability": "view",
      "type": "function"
    },
    {
      "inputs": [
        {
          "internalType": "uint256",
          "name": "tokenId",
          "type": "uint256"
        }
      ],
      "name": "ownerOf",
      "outputs": [
        {
          "internalType": "address",
          "name": "",
          "type": "address"
        }
      ],
      "stateMutability": "view",
      "type": "function"
    },
    {
      "inputs": [
        {
          "internalType": "bool",
          "name": "_state",
          "type": "bool"
        }
      ],
      "name": "pause",
      "outputs": [],
      "stateMutability": "nonpayable",
      "type": "function"
    },
    {
      "inputs": [],
      "name": "paused",
      "outputs": [
        {
          "internalType": "bool",
          "name": "",
          "type": "bool"
        }
      ],
      "stateMutability": "view",
      "type": "function"
    },
    {
      "inputs": [
        {
          "internalType": "uint256",
          "name": "_mintAmount",
          "type": "uint256"
        }
      ],
      "name": "presaleMint",
      "outputs": [],
      "stateMutability": "payable",
      "type": "function"
    },
    {
      "inputs": [],
      "name": "renounceOwnership",
      "outputs": [],
      "stateMutability": "nonpayable",
      "type": "function"
    },
    {
      "inputs": [],
      "name": "reveal",
      "outputs": [],
      "stateMutability": "nonpayable",
      "type": "function"
    },
    {
      "inputs": [],
      "name": "revealed",
      "outputs": [
        {
          "internalType": "bool",
          "name": "",
          "type": "bool"
        }
      ],
      "stateMutability": "view",
      "type": "function"
    },
    {
      "inputs": [
        {
          "internalType": "address",
          "name": "from",
          "type": "address"
        },
        {
          "internalType": "address",
          "name": "to",
          "type": "address"
        },
        {
          "internalType": "uint256",
          "name": "tokenId",
          "type": "uint256"
        }
      ],
      "name": "safeTransferFrom",
      "outputs": [],
      "stateMutability": "nonpayable",
      "type": "function"
    },
    {
      "inputs": [
        {
          "internalType": "address",
          "name": "from",
          "type": "address"
        },
        {
          "internalType": "address",
          "name": "to",
          "type": "address"
        },
        {
          "internalType": "uint256",
          "name": "tokenId",
          "type": "uint256"
        },
        {
          "internalType": "bytes",
          "name": "_data",
          "type": "bytes"
        }
      ],
      "name": "safeTransferFrom",
      "outputs": [],
      "stateMutability": "nonpayable",
      "type": "function"
    },
    {
      "inputs": [
        {
          "internalType": "address",
          "name": "operator",
          "type": "address"
        },
        {
          "internalType": "bool",
          "name": "approved",
          "type": "bool"
        }
      ],
      "name": "setApprovalForAll",
      "outputs": [],
      "stateMutability": "nonpayable",
      "type": "function"
    },
    {
      "inputs": [
        {
          "internalType": "string",
          "name": "_newBaseExtension",
          "type": "string"
        }
      ],
      "name": "setBaseExtension",
      "outputs": [],
      "stateMutability": "nonpayable",
      "type": "function"
    },
    {
      "inputs": [
        {
          "internalType": "string",
          "name": "_newBaseURI",
          "type": "string"
        }
      ],
      "name": "setBaseURI",
      "outputs": [],
      "stateMutability": "nonpayable",
      "type": "function"
    },
    {
      "inputs": [
        {
          "internalType": "uint256",
          "name": "_newCost",
          "type": "uint256"
        }
      ],
      "name": "setCost",
      "outputs": [],
      "stateMutability": "nonpayable",
      "type": "function"
    },
    {
      "inputs": [
        {
          "internalType": "uint256",
          "name": "_limit",
          "type": "uint256"
        }
      ],
      "name": "setNftPerAddressLimit",
      "outputs": [],
      "stateMutability": "nonpayable",
      "type": "function"
    },
    {
      "inputs": [
        {
          "internalType": "string",
          "name": "_notRevealedURI",
          "type": "string"
        }
      ],
      "name": "setNotRevealedURI",
      "outputs": [],
      "stateMutability": "nonpayable",
      "type": "function"
    },
    {
      "inputs": [
        {
          "internalType": "bool",
          "name": "_state",
          "type": "bool"
        }
      ],
      "name": "setOnlyWhitelisted",
      "outputs": [],
      "stateMutability": "nonpayable",
      "type": "function"
    },
    {
      "inputs": [
        {
          "internalType": "uint256",
          "name": "_newmaxMintAmount",
          "type": "uint256"
        }
      ],
      "name": "setmaxMintAmount",
      "outputs": [],
      "stateMutability": "nonpayable",
      "type": "function"
    },
    {
      "inputs": [],
      "name": "supply",
      "outputs": [
        {
          "internalType": "uint256",
          "name": "",
          "type": "uint256"
        }
      ],
      "stateMutability": "view",
      "type": "function"
    },
    {
      "inputs": [
        {
          "internalType": "bytes4",
          "name": "interfaceId",
          "type": "bytes4"
        }
      ],
      "name": "supportsInterface",
      "outputs": [
        {
          "internalType": "bool",
          "name": "",
          "type": "bool"
        }
      ],
      "stateMutability": "view",
      "type": "function"
    },
    {
      "inputs": [],
      "name": "symbol",
      "outputs": [
        {
          "internalType": "string",
          "name": "",
          "type": "string"
        }
      ],
      "stateMutability": "view",
      "type": "function"
    },
    {
      "inputs": [
        {
          "internalType": "uint256",
          "name": "index",
          "type": "uint256"
        }
      ],
      "name": "tokenByIndex",
      "outputs": [
        {
          "internalType": "uint256",
          "name": "",
          "type": "uint256"
        }
      ],
      "stateMutability": "view",
      "type": "function"
    },
    {
      "inputs": [
        {
          "internalType": "address",
          "name": "owner",
          "type": "address"
        },
        {
          "internalType": "uint256",
          "name": "index",
          "type": "uint256"
        }
      ],
      "name": "tokenOfOwnerByIndex",
      "outputs": [
        {
          "internalType": "uint256",
          "name": "",
          "type": "uint256"
        }
      ],
      "stateMutability": "view",
      "type": "function"
    },
    {
      "inputs": [
        {
          "internalType": "uint256",
          "name": "tokenId",
          "type": "uint256"
        }
      ],
      "name": "tokenURI",
      "outputs": [
        {
          "internalType": "string",
          "name": "",
          "type": "string"
        }
      ],
      "stateMutability": "view",
      "type": "function"
    },
    {
      "inputs": [],
      "name": "totalSupply",
      "outputs": [
        {
          "internalType": "uint256",
          "name": "",
          "type": "uint256"
        }
      ],
      "stateMutability": "view",
      "type": "function"
    },
    {
      "inputs": [
        {
          "internalType": "address",
          "name": "from",
          "type": "address"
        },
        {
          "internalType": "address",
          "name": "to",
          "type": "address"
        },
        {
          "internalType": "uint256",
          "name": "tokenId",
          "type": "uint256"
        }
      ],
      "name": "transferFrom",
      "outputs": [],
      "stateMutability": "nonpayable",
      "type": "function"
    },
    {
      "inputs": [
        {
          "internalType": "address",
          "name": "newOwner",
          "type": "address"
        }
      ],
      "name": "transferOwnership",
      "outputs": [],
      "stateMutability": "nonpayable",
      "type": "function"
    },
    {
      "inputs": [
        {
          "internalType": "address",
          "name": "_owner",
          "type": "address"
        }
      ],
      "name": "walletOfOwner",
      "outputs": [
        {
          "internalType": "uint256[]",
          "name": "",
          "type": "uint256[]"
        }
      ],
      "stateMutability": "view",
      "type": "function"
    },
    {
      "inputs": [
        {
          "internalType": "address[]",
          "name": "_users",
          "type": "address[]"
        }
      ],
      "name": "whitelistUsers",
      "outputs": [],
      "stateMutability": "nonpayable",
      "type": "function"
    },
    {
      "inputs": [
        {
          "internalType": "uint256",
          "name": "",
          "type": "uint256"
        }
      ],
      "name": "whitelistedAddresses",
      "outputs": [
        {
          "internalType": "address",
          "name": "",
          "type": "address"
        }
      ],
      "stateMutability": "view",
      "type": "function"
    },
    {
      "inputs": [
        {
          "internalType": "address",
          "name": "paymentSplitters",
          "type": "address"
        }
      ],
      "name": "withdraw",
      "outputs": [],
      "stateMutability": "payable",
      "type": "function"
    }
  ],
  "bytecode": "0x60806040526040518060400160405280600581526020017f2e6a736f6e000000000000000000000000000000000000000000000000000000815250600d9080519060200190620000519291906200042b565b5066f8b0a10e470000600f556127106010556103e86011556103e86012556000601360006101000a81548160ff0219169083151502179055506000601360016101000a81548160ff0219169083151502179055506001601360026101000a81548160ff021916908315150217905550348015620000cd57600080fd5b5060405162005bdf38038062005bdf8339818101604052810190620000f391906200054d565b6040518060400160405280600981526020017f436f6e73656e73797300000000000000000000000000000000000000000000008152506040518060400160405280600481526020017f43737973000000000000000000000000000000000000000000000000000000008152508160009080519060200190620001779291906200042b565b508060019080519060200190620001909291906200042b565b505050620001b3620001a7620001dd60201b60201c565b620001e560201b60201c565b620001c482620002ab60201b60201c565b620001d5816200035660201b60201c565b5050620007b3565b600033905090565b6000600a60009054906101000a900473ffffffffffffffffffffffffffffffffffffffff16905081600a60006101000a81548173ffffffffffffffffffffffffffffffffffffffff021916908373ffffffffffffffffffffffffffffffffffffffff1602179055508173ffffffffffffffffffffffffffffffffffffffff168173ffffffffffffffffffffffffffffffffffffffff167f8be0079c531659141344cd1fd0a4f28419497f9722a3daafe3b4186f6b6457e060405160405180910390a35050565b620002bb620001dd60201b60201c565b73ffffffffffffffffffffffffffffffffffffffff16620002e16200040160201b60201c565b73ffffffffffffffffffffffffffffffffffffffff16146200033a576040517f08c379a00000000000000000000000000000000000000000000000000000000081526004016200033190620005e7565b60405180910390fd5b80600b9080519060200190620003529291906200042b565b5050565b62000366620001dd60201b60201c565b73ffffffffffffffffffffffffffffffffffffffff166200038c6200040160201b60201c565b73ffffffffffffffffffffffffffffffffffffffff1614620003e5576040517f08c379a0000000000000000000000000000000000000000000000000000000008152600401620003dc90620005e7565b60405180910390fd5b80600e9080519060200190620003fd9291906200042b565b5050565b6000600a60009054906101000a900473ffffffffffffffffffffffffffffffffffffffff16905090565b8280546200043990620006af565b90600052602060002090601f0160209004810192826200045d5760008555620004a9565b82601f106200047857805160ff1916838001178555620004a9565b82800160010185558215620004a9579182015b82811115620004a85782518255916020019190600101906200048b565b5b509050620004b89190620004bc565b5090565b5b80821115620004d7576000816000905550600101620004bd565b5090565b6000620004f2620004ec8462000632565b62000609565b9050828152602081018484840111156200050b57600080fd5b6200051884828562000679565b509392505050565b600082601f8301126200053257600080fd5b815162000544848260208601620004db565b91505092915050565b600080604083850312156200056157600080fd5b600083015167ffffffffffffffff8111156200057c57600080fd5b6200058a8582860162000520565b925050602083015167ffffffffffffffff811115620005a857600080fd5b620005b68582860162000520565b9150509250929050565b6000620005cf60208362000668565b9150620005dc826200078a565b602082019050919050565b600060208201905081810360008301526200060281620005c0565b9050919050565b60006200061562000628565b9050620006238282620006e5565b919050565b6000604051905090565b600067ffffffffffffffff82111562000650576200064f6200074a565b5b6200065b8262000779565b9050602081019050919050565b600082825260208201905092915050565b60005b83811015620006995780820151818401526020810190506200067c565b83811115620006a9576000848401525b50505050565b60006002820490506001821680620006c857607f821691505b60208210811415620006df57620006de6200071b565b5b50919050565b620006f08262000779565b810181811067ffffffffffffffff821117156200071257620007116200074a565b5b80604052505050565b7f4e487b7100000000000000000000000000000000000000000000000000000000600052602260045260246000fd5b7f4e487b7100000000000000000000000000000000000000000000000000000000600052604160045260246000fd5b6000601f19601f8301169050919050565b7f4f776e61626c653a2063616c6c6572206973206e6f7420746865206f776e6572600082015250565b61541c80620007c36000396000f3fe6080604052600436106102885760003560e01c80636352211e1161015a578063ba4e5c49116100c1578063d5abeb011161007a578063d5abeb01146109cb578063da3ef23f146109f6578063e985e9c514610a1f578063edec5f2714610a5c578063f2c4ce1e14610a85578063f2fde38b14610aae57610288565b8063ba4e5c49146108b6578063ba7d2c76146108f3578063c66828621461091e578063c87b56dd14610949578063c9b298f114610986578063d0eb26b0146109a257610288565b806395d89b411161011357806395d89b41146107db5780639c70b51214610806578063a0712d6814610831578063a22cb4651461084d578063a475b5dd14610876578063b88d4fde1461088d57610288565b80636352211e146106cb5780636c0360eb1461070857806370a0823114610733578063715018a6146107705780637f00c7a6146107875780638da5cb5b146107b057610288565b806323b872dd116101fe57806344a0d68a116101b757806344a0d68a146105ca5780634f6ccce7146105f3578063518302271461063057806351cff8d91461065b57806355f804b3146106775780635c975abb146106a057610288565b806323b872dd146104985780632f745c59146104c15780633af32abf146104fe5780633c9527641461053b57806342842e0e14610564578063438b63001461058d57610288565b8063081c8c4411610250578063081c8c4414610386578063095ea7b3146103b157806313faede6146103da57806318160ddd1461040557806318cae26914610430578063239c70ae1461046d57610288565b806301ffc9a71461028d57806302329a29146102ca578063047fc9aa146102f357806306fdde031461031e578063081812fc14610349575b600080fd5b34801561029957600080fd5b506102b460048036038101906102af9190613dbd565b610ad7565b6040516102c191906144cd565b60405180910390f35b3480156102d657600080fd5b506102f160048036038101906102ec9190613d94565b610ae9565b005b3480156102ff57600080fd5b50610308610b82565b604051610315919061484a565b60405180910390f35b34801561032a57600080fd5b50610333610b88565b60405161034091906144e8565b60405180910390f35b34801561035557600080fd5b50610370600480360381019061036b9190613e50565b610c1a565b60405161037d9190614444565b60405180910390f35b34801561039257600080fd5b5061039b610c9f565b6040516103a891906144e8565b60405180910390f35b3480156103bd57600080fd5b506103d860048036038101906103d39190613d13565b610d2d565b005b3480156103e657600080fd5b506103ef610e45565b6040516103fc919061484a565b60405180910390f35b34801561041157600080fd5b5061041a610e4b565b604051610427919061484a565b60405180910390f35b34801561043c57600080fd5b5061045760048036038101906104529190613ba8565b610e58565b604051610464919061484a565b60405180910390f35b34801561047957600080fd5b50610482610e70565b60405161048f919061484a565b60405180910390f35b3480156104a457600080fd5b506104bf60048036038101906104ba9190613c0d565b610e76565b005b3480156104cd57600080fd5b506104e860048036038101906104e39190613d13565b610ed6565b6040516104f5919061484a565b60405180910390f35b34801561050a57600080fd5b5061052560048036038101906105209190613ba8565b610f7b565b60405161053291906144cd565b60405180910390f35b34801561054757600080fd5b50610562600480360381019061055d9190613d94565b611050565b005b34801561057057600080fd5b5061058b60048036038101906105869190613c0d565b6110e9565b005b34801561059957600080fd5b506105b460048036038101906105af9190613ba8565b611109565b6040516105c191906144ab565b60405180910390f35b3480156105d657600080fd5b506105f160048036038101906105ec9190613e50565b611203565b005b3480156105ff57600080fd5b5061061a60048036038101906106159190613e50565b611289565b604051610627919061484a565b60405180910390f35b34801561063c57600080fd5b50610645611320565b60405161065291906144cd565b60405180910390f35b61067560048036038101906106709190613ba8565b611333565b005b34801561068357600080fd5b5061069e60048036038101906106999190613e0f565b611429565b005b3480156106ac57600080fd5b506106b56114bf565b6040516106c291906144cd565b60405180910390f35b3480156106d757600080fd5b506106f260048036038101906106ed9190613e50565b6114d2565b6040516106ff9190614444565b60405180910390f35b34801561071457600080fd5b5061071d611584565b60405161072a91906144e8565b60405180910390f35b34801561073f57600080fd5b5061075a60048036038101906107559190613ba8565b611612565b604051610767919061484a565b60405180910390f35b34801561077c57600080fd5b506107856116ca565b005b34801561079357600080fd5b506107ae60048036038101906107a99190613e50565b611752565b005b3480156107bc57600080fd5b506107c56117d8565b6040516107d29190614444565b60405180910390f35b3480156107e757600080fd5b506107f0611802565b6040516107fd91906144e8565b60405180910390f35b34801561081257600080fd5b5061081b611894565b60405161082891906144cd565b60405180910390f35b61084b60048036038101906108469190613e50565b6118a7565b005b34801561085957600080fd5b50610874600480360381019061086f9190613cd7565b611b90565b005b34801561088257600080fd5b5061088b611d11565b005b34801561089957600080fd5b506108b460048036038101906108af9190613c5c565b611daa565b005b3480156108c257600080fd5b506108dd60048036038101906108d89190613e50565b611e0c565b6040516108ea9190614444565b60405180910390f35b3480156108ff57600080fd5b50610908611e4b565b604051610915919061484a565b60405180910390f35b34801561092a57600080fd5b50610933611e51565b60405161094091906144e8565b60405180910390f35b34801561095557600080fd5b50610970600480360381019061096b9190613e50565b611edf565b60405161097d91906144e8565b60405180910390f35b6109a0600480360381019061099b9190613e50565b612038565b005b3480156109ae57600080fd5b506109c960048036038101906109c49190613e50565b6122bd565b005b3480156109d757600080fd5b506109e0612343565b6040516109ed919061484a565b60405180910390f35b348015610a0257600080fd5b50610a1d6004803603810190610a189190613e0f565b612349565b005b348015610a2b57600080fd5b50610a466004803603810190610a419190613bd1565b6123df565b604051610a5391906144cd565b60405180910390f35b348015610a6857600080fd5b50610a836004803603810190610a7e9190613d4f565b612473565b005b348015610a9157600080fd5b50610aac6004803603810190610aa79190613e0f565b612513565b005b348015610aba57600080fd5b50610ad56004803603810190610ad09190613ba8565b6125a9565b005b6000610ae2826126a1565b9050919050565b610af161271b565b73ffffffffffffffffffffffffffffffffffffffff16610b0f6117d8565b73ffffffffffffffffffffffffffffffffffffffff1614610b65576040517f08c379a0000000000000000000000000000000000000000000000000000000008152600401610b5c9061470a565b60405180910390fd5b80601360006101000a81548160ff02191690831515021790555050565b600c5481565b606060008054610b9790614b53565b80601f0160208091040260200160405190810160405280929190818152602001828054610bc390614b53565b8015610c105780601f10610be557610100808354040283529160200191610c10565b820191906000526020600020905b815481529060010190602001808311610bf357829003601f168201915b5050505050905090565b6000610c2582612723565b610c64576040517f08c379a0000000000000000000000000000000000000000000000000000000008152600401610c5b906146ea565b60405180910390fd5b6004600083815260200190815260200160002060009054906101000a900473ffffffffffffffffffffffffffffffffffffffff169050919050565b600e8054610cac90614b53565b80601f0160208091040260200160405190810160405280929190818152602001828054610cd890614b53565b8015610d255780601f10610cfa57610100808354040283529160200191610d25565b820191906000526020600020905b815481529060010190602001808311610d0857829003601f168201915b505050505081565b6000610d38826114d2565b90508073ffffffffffffffffffffffffffffffffffffffff168373ffffffffffffffffffffffffffffffffffffffff161415610da9576040517f08c379a0000000000000000000000000000000000000000000000000000000008152600401610da09061478a565b60405180910390fd5b8073ffffffffffffffffffffffffffffffffffffffff16610dc861271b565b73ffffffffffffffffffffffffffffffffffffffff161480610df75750610df681610df161271b565b6123df565b5b610e36576040517f08c379a0000000000000000000000000000000000000000000000000000000008152600401610e2d9061462a565b60405180910390fd5b610e40838361278f565b505050565b600f5481565b6000600880549050905090565b60156020528060005260406000206000915090505481565b60115481565b610e87610e8161271b565b82612848565b610ec6576040517f08c379a0000000000000000000000000000000000000000000000000000000008152600401610ebd906147ca565b60405180910390fd5b610ed1838383612926565b505050565b6000610ee183611612565b8210610f22576040517f08c379a0000000000000000000000000000000000000000000000000000000008152600401610f199061450a565b60405180910390fd5b600660008473ffffffffffffffffffffffffffffffffffffffff1673ffffffffffffffffffffffffffffffffffffffff168152602001908152602001600020600083815260200190815260200160002054905092915050565b600080600090505b601480549050811015611045578273ffffffffffffffffffffffffffffffffffffffff1660148281548110610fe1577f4e487b7100000000000000000000000000000000000000000000000000000000600052603260045260246000fd5b9060005260206000200160009054906101000a900473ffffffffffffffffffffffffffffffffffffffff1673ffffffffffffffffffffffffffffffffffffffff16141561103257600191505061104b565b808061103d90614bb6565b915050610f83565b50600090505b919050565b61105861271b565b73ffffffffffffffffffffffffffffffffffffffff166110766117d8565b73ffffffffffffffffffffffffffffffffffffffff16146110cc576040517f08c379a00000000000000000000000000000000000000000000000000000000081526004016110c39061470a565b60405180910390fd5b80601360026101000a81548160ff02191690831515021790555050565b61110483838360405180602001604052806000815250611daa565b505050565b6060600061111683611612565b905060008167ffffffffffffffff81111561115a577f4e487b7100000000000000000000000000000000000000000000000000000000600052604160045260246000fd5b6040519080825280602002602001820160405280156111885781602001602082028036833780820191505090505b50905060005b828110156111f8576111a08582610ed6565b8282815181106111d9577f4e487b7100000000000000000000000000000000000000000000000000000000600052603260045260246000fd5b60200260200101818152505080806111f090614bb6565b91505061118e565b508092505050919050565b61120b61271b565b73ffffffffffffffffffffffffffffffffffffffff166112296117d8565b73ffffffffffffffffffffffffffffffffffffffff161461127f576040517f08c379a00000000000000000000000000000000000000000000000000000000081526004016112769061470a565b60405180910390fd5b80600f8190555050565b6000611293610e4b565b82106112d4576040517f08c379a00000000000000000000000000000000000000000000000000000000081526004016112cb906147ea565b60405180910390fd5b6008828154811061130e577f4e487b7100000000000000000000000000000000000000000000000000000000600052603260045260246000fd5b90600052602060002001549050919050565b601360019054906101000a900460ff1681565b61133b61271b565b73ffffffffffffffffffffffffffffffffffffffff166113596117d8565b73ffffffffffffffffffffffffffffffffffffffff16146113af576040517f08c379a00000000000000000000000000000000000000000000000000000000081526004016113a69061470a565b60405180910390fd5b60008173ffffffffffffffffffffffffffffffffffffffff16476040516113d59061442f565b60006040518083038185875af1925050503d8060008114611412576040519150601f19603f3d011682016040523d82523d6000602084013e611417565b606091505b505090508061142557600080fd5b5050565b61143161271b565b73ffffffffffffffffffffffffffffffffffffffff1661144f6117d8565b73ffffffffffffffffffffffffffffffffffffffff16146114a5576040517f08c379a000000000000000000000000000000000000000000000000000000000815260040161149c9061470a565b60405180910390fd5b80600b90805190602001906114bb9291906138c1565b5050565b601360009054906101000a900460ff1681565b6000806002600084815260200190815260200160002060009054906101000a900473ffffffffffffffffffffffffffffffffffffffff169050600073ffffffffffffffffffffffffffffffffffffffff168173ffffffffffffffffffffffffffffffffffffffff16141561157b576040517f08c379a00000000000000000000000000000000000000000000000000000000081526004016115729061466a565b60405180910390fd5b80915050919050565b600b805461159190614b53565b80601f01602080910402602001604051908101604052809291908181526020018280546115bd90614b53565b801561160a5780601f106115df5761010080835404028352916020019161160a565b820191906000526020600020905b8154815290600101906020018083116115ed57829003601f168201915b505050505081565b60008073ffffffffffffffffffffffffffffffffffffffff168273ffffffffffffffffffffffffffffffffffffffff161415611683576040517f08c379a000000000000000000000000000000000000000000000000000000000815260040161167a9061464a565b60405180910390fd5b600360008373ffffffffffffffffffffffffffffffffffffffff1673ffffffffffffffffffffffffffffffffffffffff168152602001908152602001600020549050919050565b6116d261271b565b73ffffffffffffffffffffffffffffffffffffffff166116f06117d8565b73ffffffffffffffffffffffffffffffffffffffff1614611746576040517f08c379a000000000000000000000000000000000000000000000000000000000815260040161173d9061470a565b60405180910390fd5b6117506000612b82565b565b61175a61271b565b73ffffffffffffffffffffffffffffffffffffffff166117786117d8565b73ffffffffffffffffffffffffffffffffffffffff16146117ce576040517f08c379a00000000000000000000000000000000000000000000000000000000081526004016117c59061470a565b60405180910390fd5b8060118190555050565b6000600a60009054906101000a900473ffffffffffffffffffffffffffffffffffffffff16905090565b60606001805461181190614b53565b80601f016020809104026020016040519081016040528092919081815260200182805461183d90614b53565b801561188a5780601f1061185f5761010080835404028352916020019161188a565b820191906000526020600020905b81548152906001019060200180831161186d57829003601f168201915b5050505050905090565b601360029054906101000a900460ff1681565b601360009054906101000a900460ff16156118f7576040517f08c379a00000000000000000000000000000000000000000000000000000000081526004016118ee9061472a565b60405180910390fd5b6118ff610e4b565b600c8190555060008111611948576040517f08c379a000000000000000000000000000000000000000000000000000000000815260040161193f9061482a565b60405180910390fd5b60115481111561198d576040517f08c379a0000000000000000000000000000000000000000000000000000000008152600401611984906146aa565b60405180910390fd5b60105481600c5461199e9190614988565b11156119df576040517f08c379a00000000000000000000000000000000000000000000000000000000081526004016119d69061468a565b60405180910390fd5b6119e76117d8565b73ffffffffffffffffffffffffffffffffffffffff163373ffffffffffffffffffffffffffffffffffffffff1614611aff576000601560003373ffffffffffffffffffffffffffffffffffffffff1673ffffffffffffffffffffffffffffffffffffffff1681526020019081526020016000205490506012548282611a6c9190614988565b1115611aad576040517f08c379a0000000000000000000000000000000000000000000000000000000008152600401611aa49061458a565b60405180910390fd5b81600f54611abb9190614a0f565b341015611afd576040517f08c379a0000000000000000000000000000000000000000000000000000000008152600401611af4906147aa565b60405180910390fd5b505b6000600190505b818111611b8c57601560003373ffffffffffffffffffffffffffffffffffffffff1673ffffffffffffffffffffffffffffffffffffffff1681526020019081526020016000206000815480929190611b5d90614bb6565b9190505550611b793382600c54611b749190614988565b612c48565b8080611b8490614bb6565b915050611b06565b5050565b611b9861271b565b73ffffffffffffffffffffffffffffffffffffffff168273ffffffffffffffffffffffffffffffffffffffff161415611c06576040517f08c379a0000000000000000000000000000000000000000000000000000000008152600401611bfd906145ea565b60405180910390fd5b8060056000611c1361271b565b73ffffffffffffffffffffffffffffffffffffffff1673ffffffffffffffffffffffffffffffffffffffff16815260200190815260200160002060008473ffffffffffffffffffffffffffffffffffffffff1673ffffffffffffffffffffffffffffffffffffffff16815260200190815260200160002060006101000a81548160ff0219169083151502179055508173ffffffffffffffffffffffffffffffffffffffff16611cc061271b565b73ffffffffffffffffffffffffffffffffffffffff167f17307eab39ab6107e8899845ad3d59bd9653f200f220920489ca2b5937696c3183604051611d0591906144cd565b60405180910390a35050565b611d1961271b565b73ffffffffffffffffffffffffffffffffffffffff16611d376117d8565b73ffffffffffffffffffffffffffffffffffffffff1614611d8d576040517f08c379a0000000000000000000000000000000000000000000000000000000008152600401611d849061470a565b60405180910390fd5b6001601360016101000a81548160ff021916908315150217905550565b611dbb611db561271b565b83612848565b611dfa576040517f08c379a0000000000000000000000000000000000000000000000000000000008152600401611df1906147ca565b60405180910390fd5b611e0684848484612c66565b50505050565b60148181548110611e1c57600080fd5b906000526020600020016000915054906101000a900473ffffffffffffffffffffffffffffffffffffffff1681565b60125481565b600d8054611e5e90614b53565b80601f0160208091040260200160405190810160405280929190818152602001828054611e8a90614b53565b8015611ed75780601f10611eac57610100808354040283529160200191611ed7565b820191906000526020600020905b815481529060010190602001808311611eba57829003601f168201915b505050505081565b6060611eea82612723565b611f29576040517f08c379a0000000000000000000000000000000000000000000000000000000008152600401611f209061476a565b60405180910390fd5b60001515601360019054906101000a900460ff1615151415611fd757600e8054611f5290614b53565b80601f0160208091040260200160405190810160405280929190818152602001828054611f7e90614b53565b8015611fcb5780601f10611fa057610100808354040283529160200191611fcb565b820191906000526020600020905b815481529060010190602001808311611fae57829003601f168201915b50505050509050612033565b6000611fe1612cc2565b90506000815111612001576040518060200160405280600081525061202f565b8061200b84612d54565b600d60405160200161201f939291906143fe565b6040516020818303038152906040525b9150505b919050565b601360009054906101000a900460ff1615612088576040517f08c379a000000000000000000000000000000000000000000000000000000000815260040161207f9061472a565b60405180910390fd5b612090610e4b565b600c81905550600081116120d9576040517f08c379a00000000000000000000000000000000000000000000000000000000081526004016120d09061482a565b60405180910390fd5b60115481111561211e576040517f08c379a0000000000000000000000000000000000000000000000000000000008152600401612115906146aa565b60405180910390fd5b60105481600c5461212f9190614988565b1115612170576040517f08c379a00000000000000000000000000000000000000000000000000000000081526004016121679061468a565b60405180910390fd5b60011515601360029054906101000a900460ff1615151461219057600080fd5b61219933610f7b565b6121d8576040517f08c379a00000000000000000000000000000000000000000000000000000000081526004016121cf9061480a565b60405180910390fd5b6000601560003373ffffffffffffffffffffffffffffffffffffffff1673ffffffffffffffffffffffffffffffffffffffff168152602001908152602001600020549050601254828261222b9190614988565b111561226c576040517f08c379a00000000000000000000000000000000000000000000000000000000081526004016122639061458a565b60405180910390fd5b600182146122af576040517f08c379a00000000000000000000000000000000000000000000000000000000081526004016122a6906145aa565b60405180910390fd5b6122b93383612c48565b5050565b6122c561271b565b73ffffffffffffffffffffffffffffffffffffffff166122e36117d8565b73ffffffffffffffffffffffffffffffffffffffff1614612339576040517f08c379a00000000000000000000000000000000000000000000000000000000081526004016123309061470a565b60405180910390fd5b8060128190555050565b60105481565b61235161271b565b73ffffffffffffffffffffffffffffffffffffffff1661236f6117d8565b73ffffffffffffffffffffffffffffffffffffffff16146123c5576040517f08c379a00000000000000000000000000000000000000000000000000000000081526004016123bc9061470a565b60405180910390fd5b80600d90805190602001906123db9291906138c1565b5050565b6000600560008473ffffffffffffffffffffffffffffffffffffffff1673ffffffffffffffffffffffffffffffffffffffff16815260200190815260200160002060008373ffffffffffffffffffffffffffffffffffffffff1673ffffffffffffffffffffffffffffffffffffffff16815260200190815260200160002060009054906101000a900460ff16905092915050565b61247b61271b565b73ffffffffffffffffffffffffffffffffffffffff166124996117d8565b73ffffffffffffffffffffffffffffffffffffffff16146124ef576040517f08c379a00000000000000000000000000000000000000000000000000000000081526004016124e69061470a565b60405180910390fd5b601460006124fd9190613947565b81816014919061250e929190613968565b505050565b61251b61271b565b73ffffffffffffffffffffffffffffffffffffffff166125396117d8565b73ffffffffffffffffffffffffffffffffffffffff161461258f576040517f08c379a00000000000000000000000000000000000000000000000000000000081526004016125869061470a565b60405180910390fd5b80600e90805190602001906125a59291906138c1565b5050565b6125b161271b565b73ffffffffffffffffffffffffffffffffffffffff166125cf6117d8565b73ffffffffffffffffffffffffffffffffffffffff1614612625576040517f08c379a000000000000000000000000000000000000000000000000000000000815260040161261c9061470a565b60405180910390fd5b600073ffffffffffffffffffffffffffffffffffffffff168173ffffffffffffffffffffffffffffffffffffffff161415612695576040517f08c379a000000000000000000000000000000000000000000000000000000000815260040161268c9061454a565b60405180910390fd5b61269e81612b82565b50565b60007f780e9d63000000000000000000000000000000000000000000000000000000007bffffffffffffffffffffffffffffffffffffffffffffffffffffffff1916827bffffffffffffffffffffffffffffffffffffffffffffffffffffffff19161480612714575061271382612f01565b5b9050919050565b600033905090565b60008073ffffffffffffffffffffffffffffffffffffffff166002600084815260200190815260200160002060009054906101000a900473ffffffffffffffffffffffffffffffffffffffff1673ffffffffffffffffffffffffffffffffffffffff1614159050919050565b816004600083815260200190815260200160002060006101000a81548173ffffffffffffffffffffffffffffffffffffffff021916908373ffffffffffffffffffffffffffffffffffffffff160217905550808273ffffffffffffffffffffffffffffffffffffffff16612802836114d2565b73ffffffffffffffffffffffffffffffffffffffff167f8c5be1e5ebec7d5bd14f71427d1e84f3dd0314c0f7b2291e5b200ac8c7c3b92560405160405180910390a45050565b600061285382612723565b612892576040517f08c379a00000000000000000000000000000000000000000000000000000000081526004016128899061460a565b60405180910390fd5b600061289d836114d2565b90508073ffffffffffffffffffffffffffffffffffffffff168473ffffffffffffffffffffffffffffffffffffffff16148061290c57508373ffffffffffffffffffffffffffffffffffffffff166128f484610c1a565b73ffffffffffffffffffffffffffffffffffffffff16145b8061291d575061291c81856123df565b5b91505092915050565b8273ffffffffffffffffffffffffffffffffffffffff16612946826114d2565b73ffffffffffffffffffffffffffffffffffffffff161461299c576040517f08c379a00000000000000000000000000000000000000000000000000000000081526004016129939061474a565b60405180910390fd5b600073ffffffffffffffffffffffffffffffffffffffff168273ffffffffffffffffffffffffffffffffffffffff161415612a0c576040517f08c379a0000000000000000000000000000000000000000000000000000000008152600401612a03906145ca565b60405180910390fd5b612a17838383612fe3565b612a2260008261278f565b6001600360008573ffffffffffffffffffffffffffffffffffffffff1673ffffffffffffffffffffffffffffffffffffffff1681526020019081526020016000206000828254612a729190614a69565b925050819055506001600360008473ffffffffffffffffffffffffffffffffffffffff1673ffffffffffffffffffffffffffffffffffffffff1681526020019081526020016000206000828254612ac99190614988565b92505081905550816002600083815260200190815260200160002060006101000a81548173ffffffffffffffffffffffffffffffffffffffff021916908373ffffffffffffffffffffffffffffffffffffffff160217905550808273ffffffffffffffffffffffffffffffffffffffff168473ffffffffffffffffffffffffffffffffffffffff167fddf252ad1be2c89b69c2b068fc378daa952ba7f163c4a11628f55a4df523b3ef60405160405180910390a4505050565b6000600a60009054906101000a900473ffffffffffffffffffffffffffffffffffffffff16905081600a60006101000a81548173ffffffffffffffffffffffffffffffffffffffff021916908373ffffffffffffffffffffffffffffffffffffffff1602179055508173ffffffffffffffffffffffffffffffffffffffff168173ffffffffffffffffffffffffffffffffffffffff167f8be0079c531659141344cd1fd0a4f28419497f9722a3daafe3b4186f6b6457e060405160405180910390a35050565b612c62828260405180602001604052806000815250612ff3565b5050565b612c71848484612926565b612c7d8484848461304e565b612cbc576040517f08c379a0000000000000000000000000000000000000000000000000000000008152600401612cb39061452a565b60405180910390fd5b50505050565b6060600b8054612cd190614b53565b80601f0160208091040260200160405190810160405280929190818152602001828054612cfd90614b53565b8015612d4a5780601f10612d1f57610100808354040283529160200191612d4a565b820191906000526020600020905b815481529060010190602001808311612d2d57829003601f168201915b5050505050905090565b60606000821415612d9c576040518060400160405280600181526020017f30000000000000000000000000000000000000000000000000000000000000008152509050612efc565b600082905060005b60008214612dce578080612db790614bb6565b915050600a82612dc791906149de565b9150612da4565b60008167ffffffffffffffff811115612e10577f4e487b7100000000000000000000000000000000000000000000000000000000600052604160045260246000fd5b6040519080825280601f01601f191660200182016040528015612e425781602001600182028036833780820191505090505b5090505b60008514612ef557600182612e5b9190614a69565b9150600a85612e6a9190614bff565b6030612e769190614988565b60f81b818381518110612eb2577f4e487b7100000000000000000000000000000000000000000000000000000000600052603260045260246000fd5b60200101907effffffffffffffffffffffffffffffffffffffffffffffffffffffffffffff1916908160001a905350600a85612eee91906149de565b9450612e46565b8093505050505b919050565b60007f80ac58cd000000000000000000000000000000000000000000000000000000007bffffffffffffffffffffffffffffffffffffffffffffffffffffffff1916827bffffffffffffffffffffffffffffffffffffffffffffffffffffffff19161480612fcc57507f5b5e139f000000000000000000000000000000000000000000000000000000007bffffffffffffffffffffffffffffffffffffffffffffffffffffffff1916827bffffffffffffffffffffffffffffffffffffffffffffffffffffffff1916145b80612fdc5750612fdb826131e5565b5b9050919050565b612fee83838361324f565b505050565b612ffd8383613363565b61300a600084848461304e565b613049576040517f08c379a00000000000000000000000000000000000000000000000000000000081526004016130409061452a565b60405180910390fd5b505050565b600061306f8473ffffffffffffffffffffffffffffffffffffffff16613531565b156131d8578373ffffffffffffffffffffffffffffffffffffffff1663150b7a0261309861271b565b8786866040518563ffffffff1660e01b81526004016130ba949392919061445f565b602060405180830381600087803b1580156130d457600080fd5b505af192505050801561310557506040513d601f19601f820116820180604052508101906131029190613de6565b60015b613188573d8060008114613135576040519150601f19603f3d011682016040523d82523d6000602084013e61313a565b606091505b50600081511415613180576040517f08c379a00000000000000000000000000000000000000000000000000000000081526004016131779061452a565b60405180910390fd5b805181602001fd5b63150b7a0260e01b7bffffffffffffffffffffffffffffffffffffffffffffffffffffffff1916817bffffffffffffffffffffffffffffffffffffffffffffffffffffffff1916149150506131dd565b600190505b949350505050565b60007f01ffc9a7000000000000000000000000000000000000000000000000000000007bffffffffffffffffffffffffffffffffffffffffffffffffffffffff1916827bffffffffffffffffffffffffffffffffffffffffffffffffffffffff1916149050919050565b61325a838383613544565b600073ffffffffffffffffffffffffffffffffffffffff168373ffffffffffffffffffffffffffffffffffffffff16141561329d5761329881613549565b6132dc565b8173ffffffffffffffffffffffffffffffffffffffff168373ffffffffffffffffffffffffffffffffffffffff16146132db576132da8382613592565b5b5b600073ffffffffffffffffffffffffffffffffffffffff168273ffffffffffffffffffffffffffffffffffffffff16141561331f5761331a816136ff565b61335e565b8273ffffffffffffffffffffffffffffffffffffffff168273ffffffffffffffffffffffffffffffffffffffff161461335d5761335c8282613842565b5b5b505050565b600073ffffffffffffffffffffffffffffffffffffffff168273ffffffffffffffffffffffffffffffffffffffff1614156133d3576040517f08c379a00000000000000000000000000000000000000000000000000000000081526004016133ca906146ca565b60405180910390fd5b6133dc81612723565b1561341c576040517f08c379a00000000000000000000000000000000000000000000000000000000081526004016134139061456a565b60405180910390fd5b61342860008383612fe3565b6001600360008473ffffffffffffffffffffffffffffffffffffffff1673ffffffffffffffffffffffffffffffffffffffff16815260200190815260200160002060008282546134789190614988565b92505081905550816002600083815260200190815260200160002060006101000a81548173ffffffffffffffffffffffffffffffffffffffff021916908373ffffffffffffffffffffffffffffffffffffffff160217905550808273ffffffffffffffffffffffffffffffffffffffff16600073ffffffffffffffffffffffffffffffffffffffff167fddf252ad1be2c89b69c2b068fc378daa952ba7f163c4a11628f55a4df523b3ef60405160405180910390a45050565b600080823b905060008111915050919050565b505050565b6008805490506009600083815260200190815260200160002081905550600881908060018154018082558091505060019003906000526020600020016000909190919091505550565b6000600161359f84611612565b6135a99190614a69565b905060006007600084815260200190815260200160002054905081811461368e576000600660008673ffffffffffffffffffffffffffffffffffffffff1673ffffffffffffffffffffffffffffffffffffffff168152602001908152602001600020600084815260200190815260200160002054905080600660008773ffffffffffffffffffffffffffffffffffffffff1673ffffffffffffffffffffffffffffffffffffffff168152602001908152602001600020600084815260200190815260200160002081905550816007600083815260200190815260200160002081905550505b6007600084815260200190815260200160002060009055600660008573ffffffffffffffffffffffffffffffffffffffff1673ffffffffffffffffffffffffffffffffffffffff16815260200190815260200160002060008381526020019081526020016000206000905550505050565b600060016008805490506137139190614a69565b9050600060096000848152602001908152602001600020549050600060088381548110613769577f4e487b7100000000000000000000000000000000000000000000000000000000600052603260045260246000fd5b9060005260206000200154905080600883815481106137b1577f4e487b7100000000000000000000000000000000000000000000000000000000600052603260045260246000fd5b906000526020600020018190555081600960008381526020019081526020016000208190555060096000858152602001908152602001600020600090556008805480613826577f4e487b7100000000000000000000000000000000000000000000000000000000600052603160045260246000fd5b6001900381819060005260206000200160009055905550505050565b600061384d83611612565b905081600660008573ffffffffffffffffffffffffffffffffffffffff1673ffffffffffffffffffffffffffffffffffffffff168152602001908152602001600020600083815260200190815260200160002081905550806007600084815260200190815260200160002081905550505050565b8280546138cd90614b53565b90600052602060002090601f0160209004810192826138ef5760008555613936565b82601f1061390857805160ff1916838001178555613936565b82800160010185558215613936579182015b8281111561393557825182559160200191906001019061391a565b5b5090506139439190613a08565b5090565b50805460008255906000526020600020908101906139659190613a08565b50565b8280548282559060005260206000209081019282156139f7579160200282015b828111156139f657823573ffffffffffffffffffffffffffffffffffffffff168260006101000a81548173ffffffffffffffffffffffffffffffffffffffff021916908373ffffffffffffffffffffffffffffffffffffffff16021790555091602001919060010190613988565b5b509050613a049190613a08565b5090565b5b80821115613a21576000816000905550600101613a09565b5090565b6000613a38613a338461488a565b614865565b905082815260208101848484011115613a5057600080fd5b613a5b848285614b11565b509392505050565b6000613a76613a71846148bb565b614865565b905082815260208101848484011115613a8e57600080fd5b613a99848285614b11565b509392505050565b600081359050613ab08161538a565b92915050565b60008083601f840112613ac857600080fd5b8235905067ffffffffffffffff811115613ae157600080fd5b602083019150836020820283011115613af957600080fd5b9250929050565b600081359050613b0f816153a1565b92915050565b600081359050613b24816153b8565b92915050565b600081519050613b39816153b8565b92915050565b600082601f830112613b5057600080fd5b8135613b60848260208601613a25565b91505092915050565b600082601f830112613b7a57600080fd5b8135613b8a848260208601613a63565b91505092915050565b600081359050613ba2816153cf565b92915050565b600060208284031215613bba57600080fd5b6000613bc884828501613aa1565b91505092915050565b60008060408385031215613be457600080fd5b6000613bf285828601613aa1565b9250506020613c0385828601613aa1565b9150509250929050565b600080600060608486031215613c2257600080fd5b6000613c3086828701613aa1565b9350506020613c4186828701613aa1565b9250506040613c5286828701613b93565b9150509250925092565b60008060008060808587031215613c7257600080fd5b6000613c8087828801613aa1565b9450506020613c9187828801613aa1565b9350506040613ca287828801613b93565b925050606085013567ffffffffffffffff811115613cbf57600080fd5b613ccb87828801613b3f565b91505092959194509250565b60008060408385031215613cea57600080fd5b6000613cf885828601613aa1565b9250506020613d0985828601613b00565b9150509250929050565b60008060408385031215613d2657600080fd5b6000613d3485828601613aa1565b9250506020613d4585828601613b93565b9150509250929050565b60008060208385031215613d6257600080fd5b600083013567ffffffffffffffff811115613d7c57600080fd5b613d8885828601613ab6565b92509250509250929050565b600060208284031215613da657600080fd5b6000613db484828501613b00565b91505092915050565b600060208284031215613dcf57600080fd5b6000613ddd84828501613b15565b91505092915050565b600060208284031215613df857600080fd5b6000613e0684828501613b2a565b91505092915050565b600060208284031215613e2157600080fd5b600082013567ffffffffffffffff811115613e3b57600080fd5b613e4784828501613b69565b91505092915050565b600060208284031215613e6257600080fd5b6000613e7084828501613b93565b91505092915050565b6000613e8583836143e0565b60208301905092915050565b613e9a81614a9d565b82525050565b6000613eab82614911565b613eb5818561493f565b9350613ec0836148ec565b8060005b83811015613ef1578151613ed88882613e79565b9750613ee383614932565b925050600181019050613ec4565b5085935050505092915050565b613f0781614aaf565b82525050565b6000613f188261491c565b613f228185614950565b9350613f32818560208601614b20565b613f3b81614cec565b840191505092915050565b6000613f5182614927565b613f5b818561496c565b9350613f6b818560208601614b20565b613f7481614cec565b840191505092915050565b6000613f8a82614927565b613f94818561497d565b9350613fa4818560208601614b20565b80840191505092915050565b60008154613fbd81614b53565b613fc7818661497d565b94506001821660008114613fe25760018114613ff357614026565b60ff19831686528186019350614026565b613ffc856148fc565b60005b8381101561401e57815481890152600182019150602081019050613fff565b838801955050505b50505092915050565b600061403c602b8361496c565b915061404782614cfd565b604082019050919050565b600061405f60328361496c565b915061406a82614d4c565b604082019050919050565b600061408260268361496c565b915061408d82614d9b565b604082019050919050565b60006140a5601c8361496c565b91506140b082614dea565b602082019050919050565b60006140c8601c8361496c565b91506140d382614e13565b602082019050919050565b60006140eb60228361496c565b91506140f682614e3c565b604082019050919050565b600061410e60248361496c565b915061411982614e8b565b604082019050919050565b600061413160198361496c565b915061413c82614eda565b602082019050919050565b6000614154602c8361496c565b915061415f82614f03565b604082019050919050565b600061417760388361496c565b915061418282614f52565b604082019050919050565b600061419a602a8361496c565b91506141a582614fa1565b604082019050919050565b60006141bd60298361496c565b91506141c882614ff0565b604082019050919050565b60006141e060168361496c565b91506141eb8261503f565b602082019050919050565b600061420360248361496c565b915061420e82615068565b604082019050919050565b600061422660208361496c565b9150614231826150b7565b602082019050919050565b6000614249602c8361496c565b9150614254826150e0565b604082019050919050565b600061426c60208361496c565b91506142778261512f565b602082019050919050565b600061428f60168361496c565b915061429a82615158565b602082019050919050565b60006142b260298361496c565b91506142bd82615181565b604082019050919050565b60006142d5602f8361496c565b91506142e0826151d0565b604082019050919050565b60006142f860218361496c565b91506143038261521f565b604082019050919050565b600061431b600083614961565b91506143268261526e565b600082019050919050565b600061433e60128361496c565b915061434982615271565b602082019050919050565b600061436160318361496c565b915061436c8261529a565b604082019050919050565b6000614384602c8361496c565b915061438f826152e9565b604082019050919050565b60006143a760178361496c565b91506143b282615338565b602082019050919050565b60006143ca601b8361496c565b91506143d582615361565b602082019050919050565b6143e981614b07565b82525050565b6143f881614b07565b82525050565b600061440a8286613f7f565b91506144168285613f7f565b91506144228284613fb0565b9150819050949350505050565b600061443a8261430e565b9150819050919050565b60006020820190506144596000830184613e91565b92915050565b60006080820190506144746000830187613e91565b6144816020830186613e91565b61448e60408301856143ef565b81810360608301526144a08184613f0d565b905095945050505050565b600060208201905081810360008301526144c58184613ea0565b905092915050565b60006020820190506144e26000830184613efe565b92915050565b600060208201905081810360008301526145028184613f46565b905092915050565b600060208201905081810360008301526145238161402f565b9050919050565b6000602082019050818103600083015261454381614052565b9050919050565b6000602082019050818103600083015261456381614075565b9050919050565b6000602082019050818103600083015261458381614098565b9050919050565b600060208201905081810360008301526145a3816140bb565b9050919050565b600060208201905081810360008301526145c3816140de565b9050919050565b600060208201905081810360008301526145e381614101565b9050919050565b6000602082019050818103600083015261460381614124565b9050919050565b6000602082019050818103600083015261462381614147565b9050919050565b600060208201905081810360008301526146438161416a565b9050919050565b600060208201905081810360008301526146638161418d565b9050919050565b60006020820190508181036000830152614683816141b0565b9050919050565b600060208201905081810360008301526146a3816141d3565b9050919050565b600060208201905081810360008301526146c3816141f6565b9050919050565b600060208201905081810360008301526146e381614219565b9050919050565b600060208201905081810360008301526147038161423c565b9050919050565b600060208201905081810360008301526147238161425f565b9050919050565b6000602082019050818103600083015261474381614282565b9050919050565b60006020820190508181036000830152614763816142a5565b9050919050565b60006020820190508181036000830152614783816142c8565b9050919050565b600060208201905081810360008301526147a3816142eb565b9050919050565b600060208201905081810360008301526147c381614331565b9050919050565b600060208201905081810360008301526147e381614354565b9050919050565b6000602082019050818103600083015261480381614377565b9050919050565b600060208201905081810360008301526148238161439a565b9050919050565b60006020820190508181036000830152614843816143bd565b9050919050565b600060208201905061485f60008301846143ef565b92915050565b600061486f614880565b905061487b8282614b85565b919050565b6000604051905090565b600067ffffffffffffffff8211156148a5576148a4614cbd565b5b6148ae82614cec565b9050602081019050919050565b600067ffffffffffffffff8211156148d6576148d5614cbd565b5b6148df82614cec565b9050602081019050919050565b6000819050602082019050919050565b60008190508160005260206000209050919050565b600081519050919050565b600081519050919050565b600081519050919050565b6000602082019050919050565b600082825260208201905092915050565b600082825260208201905092915050565b600081905092915050565b600082825260208201905092915050565b600081905092915050565b600061499382614b07565b915061499e83614b07565b9250827fffffffffffffffffffffffffffffffffffffffffffffffffffffffffffffffff038211156149d3576149d2614c30565b5b828201905092915050565b60006149e982614b07565b91506149f483614b07565b925082614a0457614a03614c5f565b5b828204905092915050565b6000614a1a82614b07565b9150614a2583614b07565b9250817fffffffffffffffffffffffffffffffffffffffffffffffffffffffffffffffff0483118215151615614a5e57614a5d614c30565b5b828202905092915050565b6000614a7482614b07565b9150614a7f83614b07565b925082821015614a9257614a91614c30565b5b828203905092915050565b6000614aa882614ae7565b9050919050565b60008115159050919050565b60007fffffffff0000000000000000000000000000000000000000000000000000000082169050919050565b600073ffffffffffffffffffffffffffffffffffffffff82169050919050565b6000819050919050565b82818337600083830152505050565b60005b83811015614b3e578082015181840152602081019050614b23565b83811115614b4d576000848401525b50505050565b60006002820490506001821680614b6b57607f821691505b60208210811415614b7f57614b7e614c8e565b5b50919050565b614b8e82614cec565b810181811067ffffffffffffffff82111715614bad57614bac614cbd565b5b80604052505050565b6000614bc182614b07565b91507fffffffffffffffffffffffffffffffffffffffffffffffffffffffffffffffff821415614bf457614bf3614c30565b5b600182019050919050565b6000614c0a82614b07565b9150614c1583614b07565b925082614c2557614c24614c5f565b5b828206905092915050565b7f4e487b7100000000000000000000000000000000000000000000000000000000600052601160045260246000fd5b7f4e487b7100000000000000000000000000000000000000000000000000000000600052601260045260246000fd5b7f4e487b7100000000000000000000000000000000000000000000000000000000600052602260045260246000fd5b7f4e487b7100000000000000000000000000000000000000000000000000000000600052604160045260246000fd5b6000601f19601f8301169050919050565b7f455243373231456e756d657261626c653a206f776e657220696e646578206f7560008201527f74206f6620626f756e6473000000000000000000000000000000000000000000602082015250565b7f4552433732313a207472616e7366657220746f206e6f6e20455243373231526560008201527f63656976657220696d706c656d656e7465720000000000000000000000000000602082015250565b7f4f776e61626c653a206e6577206f776e657220697320746865207a65726f206160008201527f6464726573730000000000000000000000000000000000000000000000000000602082015250565b7f4552433732313a20746f6b656e20616c7265616479206d696e74656400000000600082015250565b7f6d6178204e465420706572206164647265737320657863656564656400000000600082015250565b7f6d696e74416d6f756e7420666f722077686974656c697374206d75737420626560008201527f2031000000000000000000000000000000000000000000000000000000000000602082015250565b7f4552433732313a207472616e7366657220746f20746865207a65726f2061646460008201527f7265737300000000000000000000000000000000000000000000000000000000602082015250565b7f4552433732313a20617070726f766520746f2063616c6c657200000000000000600082015250565b7f4552433732313a206f70657261746f7220717565727920666f72206e6f6e657860008201527f697374656e7420746f6b656e0000000000000000000000000000000000000000602082015250565b7f4552433732313a20617070726f76652063616c6c6572206973206e6f74206f7760008201527f6e6572206e6f7220617070726f76656420666f7220616c6c0000000000000000602082015250565b7f4552433732313a2062616c616e636520717565727920666f7220746865207a6560008201527f726f206164647265737300000000000000000000000000000000000000000000602082015250565b7f4552433732313a206f776e657220717565727920666f72206e6f6e657869737460008201527f656e7420746f6b656e0000000000000000000000000000000000000000000000602082015250565b7f6d6178204e4654206c696d697420657863656564656400000000000000000000600082015250565b7f6d6178206d696e7420616d6f756e74207065722073657373696f6e206578636560008201527f6564656400000000000000000000000000000000000000000000000000000000602082015250565b7f4552433732313a206d696e7420746f20746865207a65726f2061646472657373600082015250565b7f4552433732313a20617070726f76656420717565727920666f72206e6f6e657860008201527f697374656e7420746f6b656e0000000000000000000000000000000000000000602082015250565b7f4f776e61626c653a2063616c6c6572206973206e6f7420746865206f776e6572600082015250565b7f74686520636f6e74726163742069732070617573656400000000000000000000600082015250565b7f4552433732313a207472616e73666572206f6620746f6b656e2074686174206960008201527f73206e6f74206f776e0000000000000000000000000000000000000000000000602082015250565b7f4552433732314d657461646174613a2055524920717565727920666f72206e6f60008201527f6e6578697374656e7420746f6b656e0000000000000000000000000000000000602082015250565b7f4552433732313a20617070726f76616c20746f2063757272656e74206f776e6560008201527f7200000000000000000000000000000000000000000000000000000000000000602082015250565b50565b7f696e73756666696369656e742066756e64730000000000000000000000000000600082015250565b7f4552433732313a207472616e736665722063616c6c6572206973206e6f74206f60008201527f776e6572206e6f7220617070726f766564000000000000000000000000000000602082015250565b7f455243373231456e756d657261626c653a20676c6f62616c20696e646578206f60008201527f7574206f6620626f756e64730000000000000000000000000000000000000000602082015250565b7f75736572206973206e6f742077686974656c6973746564000000000000000000600082015250565b7f6e65656420746f206d696e74206174206c656173742031204e46540000000000600082015250565b61539381614a9d565b811461539e57600080fd5b50565b6153aa81614aaf565b81146153b557600080fd5b50565b6153c181614abb565b81146153cc57600080fd5b50565b6153d881614b07565b81146153e357600080fd5b5056fea2646970667358221220cefdccec13b246718489fd8b8eda6c039e194d6876da97005d638bf319cec1e364736f6c63430008040033",
  "linkReferences": {},
  "deployedLinkReferences": {}
}